{
  "_format": "hh-sol-artifact-1",
  "contractName": "Raffle",
  "sourceName": "contracts/Raffle.sol",
  "abi": [
    {
      "inputs": [
        {
          "internalType": "uint256",
          "name": "_interval",
          "type": "uint256"
        },
        {
          "internalType": "uint32",
          "name": "_callbackGasLimit",
          "type": "uint32"
        },
        {
          "internalType": "uint64",
          "name": "_subscriptionId",
          "type": "uint64"
        },
        {
          "internalType": "bytes32",
          "name": "_gasLane",
          "type": "bytes32"
        },
        {
          "internalType": "address",
          "name": "VRFCoordinatorAddress",
          "type": "address"
        },
        {
          "internalType": "uint256",
          "name": "_entranceFee",
          "type": "uint256"
        }
      ],
      "stateMutability": "nonpayable",
      "type": "constructor"
    },
    {
      "inputs": [
        {
          "internalType": "address",
          "name": "have",
          "type": "address"
        },
        {
          "internalType": "address",
          "name": "want",
          "type": "address"
        }
      ],
      "name": "OnlyCoordinatorCanFulfill",
      "type": "error"
    },
    {
      "inputs": [],
      "name": "Raffle__NotEnoughEthSent",
      "type": "error"
    },
    {
      "inputs": [],
      "name": "Raffle__RaffleClosed",
      "type": "error"
    },
    {
      "inputs": [],
      "name": "Raffle__UpKeepNotNeeded",
      "type": "error"
    },
    {
      "anonymous": false,
      "inputs": [
        {
          "indexed": true,
          "internalType": "address",
          "name": "player",
          "type": "address"
        }
      ],
      "name": "RaffleEnter",
      "type": "event"
    },
    {
      "anonymous": false,
      "inputs": [
        {
          "indexed": true,
          "internalType": "uint256",
          "name": "requestId",
          "type": "uint256"
        }
      ],
      "name": "RequestedRaffleWinner",
      "type": "event"
    },
    {
      "anonymous": false,
      "inputs": [
        {
          "indexed": true,
          "internalType": "address",
          "name": "recentWinner",
          "type": "address"
        }
      ],
      "name": "WinnerPicked",
      "type": "event"
    },
    {
      "inputs": [
        {
          "internalType": "bytes",
          "name": "",
          "type": "bytes"
        }
      ],
      "name": "checkUpkeep",
      "outputs": [
        {
          "internalType": "bool",
          "name": "upkeepNeeded",
          "type": "bool"
        },
        {
          "internalType": "bytes",
          "name": "",
          "type": "bytes"
        }
      ],
      "stateMutability": "view",
      "type": "function"
    },
    {
      "inputs": [],
      "name": "enterRaffle",
      "outputs": [],
      "stateMutability": "payable",
      "type": "function"
    },
    {
      "inputs": [],
      "name": "getEntranceFee",
      "outputs": [
        {
          "internalType": "uint256",
          "name": "",
          "type": "uint256"
        }
      ],
      "stateMutability": "view",
      "type": "function"
    },
    {
      "inputs": [],
      "name": "getInterval",
      "outputs": [
        {
          "internalType": "uint256",
          "name": "",
          "type": "uint256"
        }
      ],
      "stateMutability": "view",
      "type": "function"
    },
    {
      "inputs": [],
      "name": "getLastTimestamp",
      "outputs": [
        {
          "internalType": "uint256",
          "name": "",
          "type": "uint256"
        }
      ],
      "stateMutability": "view",
      "type": "function"
    },
    {
      "inputs": [],
      "name": "getNumPlayers",
      "outputs": [
        {
          "internalType": "uint256",
          "name": "",
          "type": "uint256"
        }
      ],
      "stateMutability": "view",
      "type": "function"
    },
    {
      "inputs": [],
      "name": "getNumWords",
      "outputs": [
        {
          "internalType": "uint32",
          "name": "",
          "type": "uint32"
        }
      ],
      "stateMutability": "pure",
      "type": "function"
    },
    {
      "inputs": [
        {
          "internalType": "uint256",
          "name": "index",
          "type": "uint256"
        }
      ],
      "name": "getPlayer",
      "outputs": [
        {
          "internalType": "address",
          "name": "",
          "type": "address"
        }
      ],
      "stateMutability": "view",
      "type": "function"
    },
    {
      "inputs": [],
      "name": "getRaffleState",
      "outputs": [
        {
          "internalType": "enum Raffle.RaffleState",
          "name": "",
          "type": "uint8"
        }
      ],
      "stateMutability": "view",
      "type": "function"
    },
    {
      "inputs": [],
      "name": "getRecentWinner",
      "outputs": [
        {
          "internalType": "address",
          "name": "",
          "type": "address"
        }
      ],
      "stateMutability": "view",
      "type": "function"
    },
    {
      "inputs": [
        {
          "internalType": "bytes",
          "name": "",
          "type": "bytes"
        }
      ],
      "name": "performUpkeep",
      "outputs": [],
      "stateMutability": "nonpayable",
      "type": "function"
    },
    {
      "inputs": [
        {
          "internalType": "uint256",
          "name": "requestId",
          "type": "uint256"
        },
        {
          "internalType": "uint256[]",
          "name": "randomWords",
          "type": "uint256[]"
        }
      ],
      "name": "rawFulfillRandomWords",
      "outputs": [],
      "stateMutability": "nonpayable",
      "type": "function"
    }
  ],
  "bytecode": "0x6101606040523480156200001257600080fd5b5060405162001c7c38038062001c7c833981810160405281019062000038919062000393565b818073ffffffffffffffffffffffffffffffffffffffff1660808173ffffffffffffffffffffffffffffffffffffffff1681525050506200008a67aef00aad0af62ac960c01b6200022a60201b60201c565b620000a66718779acd6653309260c01b6200022a60201b60201c565b8060a08181525050620000ca67eb9a544f376a3c9d60c01b6200022a60201b60201c565b8173ffffffffffffffffffffffffffffffffffffffff1660c08173ffffffffffffffffffffffffffffffffffffffff16815250506200011a67725d086cd032c40960c01b6200022a60201b60201c565b8260e081815250506200013e67c6662ddbcae0d0c860c01b6200022a60201b60201c565b8367ffffffffffffffff166101008167ffffffffffffffff16815250506200017767283884362dda8f9e60c01b6200022a60201b60201c565b8463ffffffff166101208163ffffffff1681525050620001a867f4adb878b9311bac60c01b6200022a60201b60201c565b856101408181525050620001cd6733755241d7f1affb60c01b6200022a60201b60201c565b6000600160006101000a81548160ff02191690836001811115620001f657620001f56200042f565b5b0217905550620002176750e2f18ac818703560c01b6200022a60201b60201c565b426002819055505050505050506200045e565b50565b600080fd5b6000819050919050565b620002478162000232565b81146200025357600080fd5b50565b60008151905062000267816200023c565b92915050565b600063ffffffff82169050919050565b62000288816200026d565b81146200029457600080fd5b50565b600081519050620002a8816200027d565b92915050565b600067ffffffffffffffff82169050919050565b620002cd81620002ae565b8114620002d957600080fd5b50565b600081519050620002ed81620002c2565b92915050565b6000819050919050565b6200030881620002f3565b81146200031457600080fd5b50565b6000815190506200032881620002fd565b92915050565b600073ffffffffffffffffffffffffffffffffffffffff82169050919050565b60006200035b826200032e565b9050919050565b6200036d816200034e565b81146200037957600080fd5b50565b6000815190506200038d8162000362565b92915050565b60008060008060008060c08789031215620003b357620003b26200022d565b5b6000620003c389828a0162000256565b9650506020620003d689828a0162000297565b9550506040620003e989828a01620002dc565b9450506060620003fc89828a0162000317565b93505060806200040f89828a016200037c565b92505060a06200042289828a0162000256565b9150509295509295509295565b7f4e487b7100000000000000000000000000000000000000000000000000000000600052602160045260246000fd5b60805160a05160c05160e0516101005161012051610140516117ae620004ce60003960008181610afe0152610c6e015260006108e6015260006108c3015260006108a2015260006108660152600081816102f0015261046501526000818161036901526103bd01526117ae6000f3fe6080604052600436106100a75760003560e01c8063473f1ddc11610064578063473f1ddc1461018957806353a2c19a146101b457806355c9e926146101df5780636e04ff0d1461020a57806391ad27b414610248578063e55ae4e814610273576100a7565b806309bc33a7146100ac578063115cbaf5146100d75780631fe543e3146101025780632cfcc5391461012b57806337899770146101355780634585e33b14610160575b600080fd5b3480156100b857600080fd5b506100c16102b0565b6040516100ce9190611042565b60405180910390f35b3480156100e357600080fd5b506100ec610314565b6040516100f991906110d4565b60405180910390f35b34801561010e57600080fd5b5061012960048036038101906101249190611288565b610367565b005b610133610427565b005b34801561014157600080fd5b5061014a6106c2565b6040516101579190611042565b60405180910390f35b34801561016c57600080fd5b5061018760048036038101906101829190611399565b610708565b005b34801561019557600080fd5b5061019e6109c6565b6040516101ab9190611423565b60405180910390f35b3480156101c057600080fd5b506101c9610a2c565b6040516101d6919061145d565b60405180910390f35b3480156101eb57600080fd5b506101f4610a71565b6040516102019190611042565b60405180910390f35b34801561021657600080fd5b50610231600480360381019061022c9190611399565b610aba565b60405161023f929190611512565b60405180910390f35b34801561025457600080fd5b5061025d610c2e565b60405161026a9190611042565b60405180910390f35b34801561027f57600080fd5b5061029a60048036038101906102959190611542565b610c92565b6040516102a79190611423565b60405180910390f35b60006102c667ce8cb16e7c51b33360c01b610d16565b6102da6756b6e4c5212934d960c01b610d16565b6102ee677a9f1bcf4de427ad60c01b610d16565b7f0000000000000000000000000000000000000000000000000000000000000000905090565b600061032a67031394217f790b7d60c01b610d16565b61033e67ab7edcdee30d4fe960c01b610d16565b6103526791131623cd0aca7d60c01b610d16565b600160009054906101000a900460ff16905090565b7f000000000000000000000000000000000000000000000000000000000000000073ffffffffffffffffffffffffffffffffffffffff163373ffffffffffffffffffffffffffffffffffffffff161461041957337f00000000000000000000000000000000000000000000000000000000000000006040517f1cf993f400000000000000000000000000000000000000000000000000000000815260040161041092919061156f565b60405180910390fd5b6104238282610d19565b5050565b61043b67942c356d7fa8e1f860c01b610d16565b61044f67231406b087b7625c60c01b610d16565b61046367c020b666cb02dae660c01b610d16565b7f00000000000000000000000000000000000000000000000000000000000000003410156104e55761049f67aa858ebd827b667360c01b610d16565b6104b3673ba41ce241364f7460c01b610d16565b6040517f246b904d00000000000000000000000000000000000000000000000000000000815260040160405180910390fd5b6104f967900cd9f3bb88236f60c01b610d16565b61050d6704f6371247f2b4ab60c01b610d16565b610521676bda8cf5ada5d49160c01b610d16565b600060018111156105355761053461105d565b5b600160009054906101000a900460ff1660018111156105575761055661105d565b5b146105b65761057067c336d49a901567ce60c01b610d16565b61058467da578712f12ee3ee60c01b610d16565b6040517f2ea3cbf200000000000000000000000000000000000000000000000000000000815260040160405180910390fd5b6105ca675d3db388930beab360c01b610d16565b6105de673000dbfe1b9dccae60c01b610d16565b6105f267f222d953e0b1b29e60c01b610d16565b6000339080600181540180825580915050600190039060005260206000200160009091909190916101000a81548173ffffffffffffffffffffffffffffffffffffffff021916908373ffffffffffffffffffffffffffffffffffffffff1602179055506106696776c8c9a5f181801760c01b610d16565b61067d67165915a8b3bd2b1460c01b610d16565b3373ffffffffffffffffffffffffffffffffffffffff167f0805e1d667bddb8a95f0f09880cf94f403fb596ce79928d9f29b74203ba284d460405160405180910390a2565b60006106d8679c8df7ddb0ad503b60c01b610d16565b6106ec6729a9896d6adc1fe460c01b610d16565b6107006760bd5e3f75b2cadb60c01b610d16565b600254905090565b61071c6758f1f18f96cd878260c01b610d16565b6107306708ae61fb677c73b660c01b610d16565b6107446721e64236e3c9e22860c01b610d16565b600061075e60405180602001604052806000815250610aba565b50905061077567faa32ea279cb212860c01b610d16565b610789674f9120bc7807795f60c01b610d16565b806107e8576107a2674aa8fccb02af1d8d60c01b610d16565b6107b667c8133746d6c92c4560c01b610d16565b6040517faedc535500000000000000000000000000000000000000000000000000000000815260040160405180910390fd5b6107fc6710fcee5dd78c26a660c01b610d16565b6108106711bd9121df83582060c01b610d16565b60018060006101000a81548160ff021916908360018111156108355761083461105d565b5b021790555061084e672fb3781c5bdf130960c01b610d16565b61086267bed3b0b9988ba1f960c01b610d16565b60007f000000000000000000000000000000000000000000000000000000000000000073ffffffffffffffffffffffffffffffffffffffff16635d3b1d307f00000000000000000000000000000000000000000000000000000000000000007f000000000000000000000000000000000000000000000000000000000000000060037f000000000000000000000000000000000000000000000000000000000000000060016040518663ffffffff1660e01b81526004016109279594939291906115f1565b6020604051808303816000875af1158015610946573d6000803e3d6000fd5b505050506040513d601f19601f8201168201806040525081019061096a9190611659565b905061098067dbc9f902b09ebe1d60c01b610d16565b61099467ac6e79eaf1437ce460c01b610d16565b807fcd6e45c8998311cab7e9d4385596cac867e20a0587194b954fa3a731c93ce78b60405160405180910390a2505050565b60006109dc67762ff631d7476ccb60c01b610d16565b6109f06756134ef40ec13ada60c01b610d16565b610a0467ddba3db000cc855d60c01b610d16565b600360009054906101000a900473ffffffffffffffffffffffffffffffffffffffff16905090565b6000610a4267b1ce57d339f4454460c01b610d16565b610a5667f3fbad696ee8d52a60c01b610d16565b610a6a67608d6c6ea86750d160c01b610d16565b6001905090565b6000610a87677dbc4d3cff38ca9660c01b610d16565b610a9b672bb40ea0832a347e60c01b610d16565b610aaf67017d628d4cfd474960c01b610d16565b600080549050905090565b60006060610ad267e5b519c1809b94b360c01b610d16565b610ae6675ae3d3181f68667360c01b610d16565b610afa67e6d094a7713374c160c01b610d16565b60007f000000000000000000000000000000000000000000000000000000000000000060025442610b2b91906116b5565b119050610b42671b3687e54dcf51d460c01b610d16565b610b5667715b90aacee2c1d760c01b610d16565b6000806001811115610b6b57610b6a61105d565b5b600160009054906101000a900460ff166001811115610b8d57610b8c61105d565b5b149050610ba467974f570a71527ee860c01b610d16565b610bb86773a945e8b2a6270460c01b610d16565b60008047119050610bd367b72745071c65b48f60c01b610d16565b610be767679ee4aa8745920460c01b610d16565b600080600080549050119050610c0767d261124a8dbbea6460c01b610d16565b838015610c115750825b8015610c1a5750815b8015610c235750805b955050505050915091565b6000610c4467f552036581a3289960c01b610d16565b610c5867e3a2f9a9ef529ac160c01b610d16565b610c6c67f7cbc6acbeade9b060c01b610d16565b7f0000000000000000000000000000000000000000000000000000000000000000905090565b6000610ca867c6df817b6b9b0d7960c01b610d16565b610cbc676591469176421a1c60c01b610d16565b610cd067cfa04a30abc9204160c01b610d16565b60008281548110610ce457610ce36116e9565b5b9060005260206000200160009054906101000a900473ffffffffffffffffffffffffffffffffffffffff169050919050565b50565b610d2d679234c74feeb015c860c01b610d16565b610d4167c88f12be9a31c4b960c01b610d16565b610d5567b32c2fb08310819160c01b610d16565b6000808054905082600081518110610d7057610d6f6116e9565b5b6020026020010151610d829190611747565b9050610d9867de90916a246e7b2b60c01b610d16565b610dac67f54781d39cf1c0b960c01b610d16565b6000808281548110610dc157610dc06116e9565b5b9060005260206000200160009054906101000a900473ffffffffffffffffffffffffffffffffffffffff169050610e0267172b08206afe030160c01b610d16565b80600360006101000a81548173ffffffffffffffffffffffffffffffffffffffff021916908373ffffffffffffffffffffffffffffffffffffffff160217905550610e5767fec0246d07c5980460c01b610d16565b600067ffffffffffffffff811115610e7257610e71611145565b5b604051908082528060200260200182016040528015610ea05781602001602082028036833780820191505090505b5060009080519060200190610eb6929190610f82565b50610ecb670315d5a4ba616a6260c01b610d16565b6000600160006101000a81548160ff02191690836001811115610ef157610ef061105d565b5b0217905550610f0a67187b685ea237fe2360c01b610d16565b42600281905550610f25674a6cb72984d31bdf60c01b610d16565b610f3967a254d5aab21adffe60c01b610d16565b8073ffffffffffffffffffffffffffffffffffffffff167f5b690ec4a06fe979403046eaeea5b3ce38524683c3001f662c8b5a829632f7df60405160405180910390a250505050565b828054828255906000526020600020908101928215610ffb579160200282015b82811115610ffa5782518260006101000a81548173ffffffffffffffffffffffffffffffffffffffff021916908373ffffffffffffffffffffffffffffffffffffffff16021790555091602001919060010190610fa2565b5b509050611008919061100c565b5090565b5b8082111561102557600081600090555060010161100d565b5090565b6000819050919050565b61103c81611029565b82525050565b60006020820190506110576000830184611033565b92915050565b7f4e487b7100000000000000000000000000000000000000000000000000000000600052602160045260246000fd5b6002811061109d5761109c61105d565b5b50565b60008190506110ae8261108c565b919050565b60006110be826110a0565b9050919050565b6110ce816110b3565b82525050565b60006020820190506110e960008301846110c5565b92915050565b6000604051905090565b600080fd5b600080fd5b61110c81611029565b811461111757600080fd5b50565b60008135905061112981611103565b92915050565b600080fd5b6000601f19601f8301169050919050565b7f4e487b7100000000000000000000000000000000000000000000000000000000600052604160045260246000fd5b61117d82611134565b810181811067ffffffffffffffff8211171561119c5761119b611145565b5b80604052505050565b60006111af6110ef565b90506111bb8282611174565b919050565b600067ffffffffffffffff8211156111db576111da611145565b5b602082029050602081019050919050565b600080fd5b60006112046111ff846111c0565b6111a5565b90508083825260208201905060208402830185811115611227576112266111ec565b5b835b81811015611250578061123c888261111a565b845260208401935050602081019050611229565b5050509392505050565b600082601f83011261126f5761126e61112f565b5b813561127f8482602086016111f1565b91505092915050565b6000806040838503121561129f5761129e6110f9565b5b60006112ad8582860161111a565b925050602083013567ffffffffffffffff8111156112ce576112cd6110fe565b5b6112da8582860161125a565b9150509250929050565b600080fd5b600067ffffffffffffffff82111561130457611303611145565b5b61130d82611134565b9050602081019050919050565b82818337600083830152505050565b600061133c611337846112e9565b6111a5565b905082815260208101848484011115611358576113576112e4565b5b61136384828561131a565b509392505050565b600082601f8301126113805761137f61112f565b5b8135611390848260208601611329565b91505092915050565b6000602082840312156113af576113ae6110f9565b5b600082013567ffffffffffffffff8111156113cd576113cc6110fe565b5b6113d98482850161136b565b91505092915050565b600073ffffffffffffffffffffffffffffffffffffffff82169050919050565b600061140d826113e2565b9050919050565b61141d81611402565b82525050565b60006020820190506114386000830184611414565b92915050565b600063ffffffff82169050919050565b6114578161143e565b82525050565b6000602082019050611472600083018461144e565b92915050565b60008115159050919050565b61148d81611478565b82525050565b600081519050919050565b600082825260208201905092915050565b60005b838110156114cd5780820151818401526020810190506114b2565b60008484015250505050565b60006114e482611493565b6114ee818561149e565b93506114fe8185602086016114af565b61150781611134565b840191505092915050565b60006040820190506115276000830185611484565b818103602083015261153981846114d9565b90509392505050565b600060208284031215611558576115576110f9565b5b60006115668482850161111a565b91505092915050565b60006040820190506115846000830185611414565b6115916020830184611414565b9392505050565b6000819050919050565b6115ab81611598565b82525050565b600067ffffffffffffffff82169050919050565b6115ce816115b1565b82525050565b600061ffff82169050919050565b6115eb816115d4565b82525050565b600060a08201905061160660008301886115a2565b61161360208301876115c5565b61162060408301866115e2565b61162d606083018561144e565b61163a608083018461144e565b9695505050505050565b60008151905061165381611103565b92915050565b60006020828403121561166f5761166e6110f9565b5b600061167d84828501611644565b91505092915050565b7f4e487b7100000000000000000000000000000000000000000000000000000000600052601160045260246000fd5b60006116c082611029565b91506116cb83611029565b92508282039050818111156116e3576116e2611686565b5b92915050565b7f4e487b7100000000000000000000000000000000000000000000000000000000600052603260045260246000fd5b7f4e487b7100000000000000000000000000000000000000000000000000000000600052601260045260246000fd5b600061175282611029565b915061175d83611029565b92508261176d5761176c611718565b5b82820690509291505056fea26469706673582212200e32ecf88b3cf4c328f243fef5cf9cc96982738a396191a03d0cac2de28f4b0264736f6c63430008110033",
  "linkReferences": {},
  "deployedLinkReferences": {}
}