{
  "_format": "hh-sol-artifact-1",
  "contractName": "Raffle",
  "sourceName": "contracts/Raffle.sol",
  "abi": [
    {
      "inputs": [
        {
          "internalType": "uint256",
          "name": "_interval",
          "type": "uint256"
        },
        {
          "internalType": "uint32",
          "name": "_callbackGasLimit",
          "type": "uint32"
        },
        {
          "internalType": "uint64",
          "name": "_subscriptionId",
          "type": "uint64"
        },
        {
          "internalType": "bytes32",
          "name": "_gasLane",
          "type": "bytes32"
        },
        {
          "internalType": "address",
          "name": "VRFCoordinatorAddress",
          "type": "address"
        },
        {
          "internalType": "uint256",
          "name": "_entranceFee",
          "type": "uint256"
        }
      ],
      "stateMutability": "nonpayable",
      "type": "constructor"
    },
    {
      "inputs": [
        {
          "internalType": "address",
          "name": "have",
          "type": "address"
        },
        {
          "internalType": "address",
          "name": "want",
          "type": "address"
        }
      ],
      "name": "OnlyCoordinatorCanFulfill",
      "type": "error"
    },
    {
      "inputs": [],
      "name": "Raffle__NotEnoughEthSent",
      "type": "error"
    },
    {
      "inputs": [],
      "name": "Raffle__RaffleClosed",
      "type": "error"
    },
    {
      "inputs": [],
      "name": "Raffle__UpKeepNotNeeded",
      "type": "error"
    },
    {
      "anonymous": false,
      "inputs": [
        {
          "indexed": true,
          "internalType": "address",
          "name": "player",
          "type": "address"
        }
      ],
      "name": "RaffleEnter",
      "type": "event"
    },
    {
      "anonymous": false,
      "inputs": [
        {
          "indexed": true,
          "internalType": "uint256",
          "name": "requestId",
          "type": "uint256"
        }
      ],
      "name": "RequestedRaffleWinner",
      "type": "event"
    },
    {
      "anonymous": false,
      "inputs": [
        {
          "indexed": true,
          "internalType": "address",
          "name": "recentWinner",
          "type": "address"
        }
      ],
      "name": "WinnerPicked",
      "type": "event"
    },
    {
      "inputs": [
        {
          "internalType": "bytes",
          "name": "",
          "type": "bytes"
        }
      ],
      "name": "checkUpkeep",
      "outputs": [
        {
          "internalType": "bool",
          "name": "upkeepNeeded",
          "type": "bool"
        },
        {
          "internalType": "bytes",
          "name": "",
          "type": "bytes"
        }
      ],
      "stateMutability": "view",
      "type": "function"
    },
    {
      "inputs": [],
      "name": "enterRaffle",
      "outputs": [],
      "stateMutability": "payable",
      "type": "function"
    },
    {
      "inputs": [],
      "name": "getEntranceFee",
      "outputs": [
        {
          "internalType": "uint256",
          "name": "",
          "type": "uint256"
        }
      ],
      "stateMutability": "view",
      "type": "function"
    },
    {
      "inputs": [],
      "name": "getInterval",
      "outputs": [
        {
          "internalType": "uint256",
          "name": "",
          "type": "uint256"
        }
      ],
      "stateMutability": "view",
      "type": "function"
    },
    {
      "inputs": [],
      "name": "getLastTimeStamp",
      "outputs": [
        {
          "internalType": "uint256",
          "name": "",
          "type": "uint256"
        }
      ],
      "stateMutability": "view",
      "type": "function"
    },
    {
      "inputs": [],
      "name": "getNumPlayers",
      "outputs": [
        {
          "internalType": "uint256",
          "name": "",
          "type": "uint256"
        }
      ],
      "stateMutability": "view",
      "type": "function"
    },
    {
      "inputs": [],
      "name": "getNumWords",
      "outputs": [
        {
          "internalType": "uint32",
          "name": "",
          "type": "uint32"
        }
      ],
      "stateMutability": "pure",
      "type": "function"
    },
    {
      "inputs": [
        {
          "internalType": "uint256",
          "name": "index",
          "type": "uint256"
        }
      ],
      "name": "getPlayer",
      "outputs": [
        {
          "internalType": "address",
          "name": "",
          "type": "address"
        }
      ],
      "stateMutability": "view",
      "type": "function"
    },
    {
      "inputs": [],
      "name": "getRaffleState",
      "outputs": [
        {
          "internalType": "enum Raffle.RaffleState",
          "name": "",
          "type": "uint8"
        }
      ],
      "stateMutability": "view",
      "type": "function"
    },
    {
      "inputs": [
        {
          "internalType": "bytes",
          "name": "",
          "type": "bytes"
        }
      ],
      "name": "performUpkeep",
      "outputs": [],
      "stateMutability": "nonpayable",
      "type": "function"
    },
    {
      "inputs": [
        {
          "internalType": "uint256",
          "name": "requestId",
          "type": "uint256"
        },
        {
          "internalType": "uint256[]",
          "name": "randomWords",
          "type": "uint256[]"
        }
      ],
      "name": "rawFulfillRandomWords",
      "outputs": [],
      "stateMutability": "nonpayable",
      "type": "function"
    }
  ],
  "bytecode": "0x6101606040523480156200001257600080fd5b506040516200156438038062001564833981810160405281019062000038919062000294565b818073ffffffffffffffffffffffffffffffffffffffff1660808173ffffffffffffffffffffffffffffffffffffffff1681525050508060a081815250508173ffffffffffffffffffffffffffffffffffffffff1660c08173ffffffffffffffffffffffffffffffffffffffff16815250508260e081815250508367ffffffffffffffff166101008167ffffffffffffffff16815250508463ffffffff166101208163ffffffff16815250508561014081815250506000600160006101000a81548160ff0219169083600181111562000116576200011562000330565b5b0217905550426002819055505050505050506200035f565b600080fd5b6000819050919050565b620001488162000133565b81146200015457600080fd5b50565b60008151905062000168816200013d565b92915050565b600063ffffffff82169050919050565b62000189816200016e565b81146200019557600080fd5b50565b600081519050620001a9816200017e565b92915050565b600067ffffffffffffffff82169050919050565b620001ce81620001af565b8114620001da57600080fd5b50565b600081519050620001ee81620001c3565b92915050565b6000819050919050565b6200020981620001f4565b81146200021557600080fd5b50565b6000815190506200022981620001fe565b92915050565b600073ffffffffffffffffffffffffffffffffffffffff82169050919050565b60006200025c826200022f565b9050919050565b6200026e816200024f565b81146200027a57600080fd5b50565b6000815190506200028e8162000263565b92915050565b60008060008060008060c08789031215620002b457620002b36200012e565b5b6000620002c489828a0162000157565b9650506020620002d789828a0162000198565b9550506040620002ea89828a01620001dd565b9450506060620002fd89828a0162000218565b93505060806200031089828a016200027d565b92505060a06200032389828a0162000157565b9150509295509295509295565b7f4e487b7100000000000000000000000000000000000000000000000000000000600052602160045260246000fd5b60805160a05160c05160e051610100516101205161014051611195620003cf600039600081816106bf0152610767015260006105ea015260006105c7015260006105a60152600061056a01526000818161027e015261037b0152600081816102bb015261030f01526111956000f3fe60806040526004361061009c5760003560e01c806353a2c19a1161006457806353a2c19a1461015357806355c9e9261461017e5780636e04ff0d146101a957806391ad27b4146101e7578063c1c244e814610212578063e55ae4e81461023d5761009c565b806309bc33a7146100a1578063115cbaf5146100cc5780631fe543e3146100f75780632cfcc539146101205780634585e33b1461012a575b600080fd5b3480156100ad57600080fd5b506100b661027a565b6040516100c39190610a29565b60405180910390f35b3480156100d857600080fd5b506100e16102a2565b6040516100ee9190610abb565b60405180910390f35b34801561010357600080fd5b5061011e60048036038101906101199190610c6f565b6102b9565b005b610128610379565b005b34801561013657600080fd5b50610151600480360381019061014c9190610d80565b6104e8565b005b34801561015f57600080fd5b506101686106a2565b6040516101759190610de8565b60405180910390f35b34801561018a57600080fd5b506101936106ab565b6040516101a09190610a29565b60405180910390f35b3480156101b557600080fd5b506101d060048036038101906101cb9190610d80565b6106b7565b6040516101de929190610e9d565b60405180910390f35b3480156101f357600080fd5b506101fc610763565b6040516102099190610a29565b60405180910390f35b34801561021e57600080fd5b5061022761078b565b6040516102349190610a29565b60405180910390f35b34801561024957600080fd5b50610264600480360381019061025f9190610ecd565b610795565b6040516102719190610f3b565b60405180910390f35b60007f0000000000000000000000000000000000000000000000000000000000000000905090565b6000600160009054906101000a900460ff16905090565b7f000000000000000000000000000000000000000000000000000000000000000073ffffffffffffffffffffffffffffffffffffffff163373ffffffffffffffffffffffffffffffffffffffff161461036b57337f00000000000000000000000000000000000000000000000000000000000000006040517f1cf993f4000000000000000000000000000000000000000000000000000000008152600401610362929190610f56565b60405180910390fd5b61037582826107dc565b5050565b7f00000000000000000000000000000000000000000000000000000000000000003410156103d3576040517f246b904d00000000000000000000000000000000000000000000000000000000815260040160405180910390fd5b600060018111156103e7576103e6610a44565b5b600160009054906101000a900460ff16600181111561040957610408610a44565b5b14610440576040517f2ea3cbf200000000000000000000000000000000000000000000000000000000815260040160405180910390fd5b6000339080600181540180825580915050600190039060005260206000200160009091909190916101000a81548173ffffffffffffffffffffffffffffffffffffffff021916908373ffffffffffffffffffffffffffffffffffffffff1602179055503373ffffffffffffffffffffffffffffffffffffffff167f0805e1d667bddb8a95f0f09880cf94f403fb596ce79928d9f29b74203ba284d460405160405180910390a2565b6000610502604051806020016040528060008152506106b7565b5090508061053c576040517faedc535500000000000000000000000000000000000000000000000000000000815260040160405180910390fd5b60018060006101000a81548160ff0219169083600181111561056157610560610a44565b5b021790555060007f000000000000000000000000000000000000000000000000000000000000000073ffffffffffffffffffffffffffffffffffffffff16635d3b1d307f00000000000000000000000000000000000000000000000000000000000000007f000000000000000000000000000000000000000000000000000000000000000060037f000000000000000000000000000000000000000000000000000000000000000060016040518663ffffffff1660e01b815260040161062b959493929190610fd8565b6020604051808303816000875af115801561064a573d6000803e3d6000fd5b505050506040513d601f19601f8201168201806040525081019061066e9190611040565b9050807fcd6e45c8998311cab7e9d4385596cac867e20a0587194b954fa3a731c93ce78b60405160405180910390a2505050565b60006001905090565b60008080549050905090565b6000606060007f0000000000000000000000000000000000000000000000000000000000000000600254426106ec919061109c565b119050600080600181111561070457610703610a44565b5b600160009054906101000a900460ff16600181111561072657610725610a44565b5b149050600080471190506000806000805490501190508380156107465750825b801561074f5750815b80156107585750805b955050505050915091565b60007f0000000000000000000000000000000000000000000000000000000000000000905090565b6000600254905090565b60008082815481106107aa576107a96110d0565b5b9060005260206000200160009054906101000a900473ffffffffffffffffffffffffffffffffffffffff169050919050565b60008080549050826000815181106107f7576107f66110d0565b5b6020026020010151610809919061112e565b905060008082815481106108205761081f6110d0565b5b9060005260206000200160009054906101000a900473ffffffffffffffffffffffffffffffffffffffff16905080600360006101000a81548173ffffffffffffffffffffffffffffffffffffffff021916908373ffffffffffffffffffffffffffffffffffffffff160217905550600067ffffffffffffffff8111156108a9576108a8610b2c565b5b6040519080825280602002602001820160405280156108d75781602001602082028036833780820191505090505b50600090805190602001906108ed929190610969565b506000600160006101000a81548160ff0219169083600181111561091457610913610a44565b5b0217905550426002819055508073ffffffffffffffffffffffffffffffffffffffff167f5b690ec4a06fe979403046eaeea5b3ce38524683c3001f662c8b5a829632f7df60405160405180910390a250505050565b8280548282559060005260206000209081019282156109e2579160200282015b828111156109e15782518260006101000a81548173ffffffffffffffffffffffffffffffffffffffff021916908373ffffffffffffffffffffffffffffffffffffffff16021790555091602001919060010190610989565b5b5090506109ef91906109f3565b5090565b5b80821115610a0c5760008160009055506001016109f4565b5090565b6000819050919050565b610a2381610a10565b82525050565b6000602082019050610a3e6000830184610a1a565b92915050565b7f4e487b7100000000000000000000000000000000000000000000000000000000600052602160045260246000fd5b60028110610a8457610a83610a44565b5b50565b6000819050610a9582610a73565b919050565b6000610aa582610a87565b9050919050565b610ab581610a9a565b82525050565b6000602082019050610ad06000830184610aac565b92915050565b6000604051905090565b600080fd5b600080fd5b610af381610a10565b8114610afe57600080fd5b50565b600081359050610b1081610aea565b92915050565b600080fd5b6000601f19601f8301169050919050565b7f4e487b7100000000000000000000000000000000000000000000000000000000600052604160045260246000fd5b610b6482610b1b565b810181811067ffffffffffffffff82111715610b8357610b82610b2c565b5b80604052505050565b6000610b96610ad6565b9050610ba28282610b5b565b919050565b600067ffffffffffffffff821115610bc257610bc1610b2c565b5b602082029050602081019050919050565b600080fd5b6000610beb610be684610ba7565b610b8c565b90508083825260208201905060208402830185811115610c0e57610c0d610bd3565b5b835b81811015610c375780610c238882610b01565b845260208401935050602081019050610c10565b5050509392505050565b600082601f830112610c5657610c55610b16565b5b8135610c66848260208601610bd8565b91505092915050565b60008060408385031215610c8657610c85610ae0565b5b6000610c9485828601610b01565b925050602083013567ffffffffffffffff811115610cb557610cb4610ae5565b5b610cc185828601610c41565b9150509250929050565b600080fd5b600067ffffffffffffffff821115610ceb57610cea610b2c565b5b610cf482610b1b565b9050602081019050919050565b82818337600083830152505050565b6000610d23610d1e84610cd0565b610b8c565b905082815260208101848484011115610d3f57610d3e610ccb565b5b610d4a848285610d01565b509392505050565b600082601f830112610d6757610d66610b16565b5b8135610d77848260208601610d10565b91505092915050565b600060208284031215610d9657610d95610ae0565b5b600082013567ffffffffffffffff811115610db457610db3610ae5565b5b610dc084828501610d52565b91505092915050565b600063ffffffff82169050919050565b610de281610dc9565b82525050565b6000602082019050610dfd6000830184610dd9565b92915050565b60008115159050919050565b610e1881610e03565b82525050565b600081519050919050565b600082825260208201905092915050565b60005b83811015610e58578082015181840152602081019050610e3d565b60008484015250505050565b6000610e6f82610e1e565b610e798185610e29565b9350610e89818560208601610e3a565b610e9281610b1b565b840191505092915050565b6000604082019050610eb26000830185610e0f565b8181036020830152610ec48184610e64565b90509392505050565b600060208284031215610ee357610ee2610ae0565b5b6000610ef184828501610b01565b91505092915050565b600073ffffffffffffffffffffffffffffffffffffffff82169050919050565b6000610f2582610efa565b9050919050565b610f3581610f1a565b82525050565b6000602082019050610f506000830184610f2c565b92915050565b6000604082019050610f6b6000830185610f2c565b610f786020830184610f2c565b9392505050565b6000819050919050565b610f9281610f7f565b82525050565b600067ffffffffffffffff82169050919050565b610fb581610f98565b82525050565b600061ffff82169050919050565b610fd281610fbb565b82525050565b600060a082019050610fed6000830188610f89565b610ffa6020830187610fac565b6110076040830186610fc9565b6110146060830185610dd9565b6110216080830184610dd9565b9695505050505050565b60008151905061103a81610aea565b92915050565b60006020828403121561105657611055610ae0565b5b60006110648482850161102b565b91505092915050565b7f4e487b7100000000000000000000000000000000000000000000000000000000600052601160045260246000fd5b60006110a782610a10565b91506110b283610a10565b92508282039050818111156110ca576110c961106d565b5b92915050565b7f4e487b7100000000000000000000000000000000000000000000000000000000600052603260045260246000fd5b7f4e487b7100000000000000000000000000000000000000000000000000000000600052601260045260246000fd5b600061113982610a10565b915061114483610a10565b925082611154576111536110ff565b5b82820690509291505056fea264697066735822122048ac0833dca1d7756197443dbcc1bcf7ec79ebd5a678732424c4d37bc4bfcbab64736f6c63430008110033",
  "linkReferences": {},
  "deployedLinkReferences": {}
}