{
  "_format": "hh-sol-artifact-1",
  "contractName": "Raffle",
  "sourceName": "contracts/Raffle.sol",
  "abi": [
    {
      "inputs": [
        {
          "internalType": "uint256",
          "name": "_interval",
          "type": "uint256"
        },
        {
          "internalType": "uint32",
          "name": "_callbackGasLimit",
          "type": "uint32"
        },
        {
          "internalType": "uint64",
          "name": "_subscriptionId",
          "type": "uint64"
        },
        {
          "internalType": "bytes32",
          "name": "_gasLane",
          "type": "bytes32"
        },
        {
          "internalType": "address",
          "name": "VRFCoordinatorAddress",
          "type": "address"
        },
        {
          "internalType": "uint256",
          "name": "_entranceFee",
          "type": "uint256"
        }
      ],
      "stateMutability": "nonpayable",
      "type": "constructor"
    },
    {
      "inputs": [
        {
          "internalType": "address",
          "name": "have",
          "type": "address"
        },
        {
          "internalType": "address",
          "name": "want",
          "type": "address"
        }
      ],
      "name": "OnlyCoordinatorCanFulfill",
      "type": "error"
    },
    {
      "inputs": [],
      "name": "Raffle__NotEnoughEthSent",
      "type": "error"
    },
    {
      "inputs": [],
      "name": "Raffle__RaffleClosed",
      "type": "error"
    },
    {
      "inputs": [],
      "name": "Raffle__UpKeepNotNeeded",
      "type": "error"
    },
    {
      "anonymous": false,
      "inputs": [
        {
          "indexed": true,
          "internalType": "address",
          "name": "player",
          "type": "address"
        }
      ],
      "name": "RaffleEnter",
      "type": "event"
    },
    {
      "anonymous": false,
      "inputs": [
        {
          "indexed": true,
          "internalType": "uint256",
          "name": "requestId",
          "type": "uint256"
        }
      ],
      "name": "RequestedRaffleWinner",
      "type": "event"
    },
    {
      "anonymous": false,
      "inputs": [
        {
          "indexed": true,
          "internalType": "address",
          "name": "recentWinner",
          "type": "address"
        }
      ],
      "name": "WinnerPicked",
      "type": "event"
    },
    {
      "inputs": [
        {
          "internalType": "bytes",
          "name": "",
          "type": "bytes"
        }
      ],
      "name": "checkUpkeep",
      "outputs": [
        {
          "internalType": "bool",
          "name": "upkeepNeeded",
          "type": "bool"
        },
        {
          "internalType": "bytes",
          "name": "",
          "type": "bytes"
        }
      ],
      "stateMutability": "view",
      "type": "function"
    },
    {
      "inputs": [],
      "name": "enterRaffle",
      "outputs": [],
      "stateMutability": "payable",
      "type": "function"
    },
    {
      "inputs": [],
      "name": "getEntranceFee",
      "outputs": [
        {
          "internalType": "uint256",
          "name": "",
          "type": "uint256"
        }
      ],
      "stateMutability": "view",
      "type": "function"
    },
    {
      "inputs": [],
      "name": "getInterval",
      "outputs": [
        {
          "internalType": "uint256",
          "name": "",
          "type": "uint256"
        }
      ],
      "stateMutability": "view",
      "type": "function"
    },
    {
      "inputs": [],
      "name": "getLastTimestamp",
      "outputs": [
        {
          "internalType": "uint256",
          "name": "",
          "type": "uint256"
        }
      ],
      "stateMutability": "view",
      "type": "function"
    },
    {
      "inputs": [],
      "name": "getNumPlayers",
      "outputs": [
        {
          "internalType": "uint256",
          "name": "",
          "type": "uint256"
        }
      ],
      "stateMutability": "view",
      "type": "function"
    },
    {
      "inputs": [],
      "name": "getNumWords",
      "outputs": [
        {
          "internalType": "uint32",
          "name": "",
          "type": "uint32"
        }
      ],
      "stateMutability": "pure",
      "type": "function"
    },
    {
      "inputs": [
        {
          "internalType": "uint256",
          "name": "index",
          "type": "uint256"
        }
      ],
      "name": "getPlayer",
      "outputs": [
        {
          "internalType": "address",
          "name": "",
          "type": "address"
        }
      ],
      "stateMutability": "view",
      "type": "function"
    },
    {
      "inputs": [],
      "name": "getRaffleState",
      "outputs": [
        {
          "internalType": "enum Raffle.RaffleState",
          "name": "",
          "type": "uint8"
        }
      ],
      "stateMutability": "view",
      "type": "function"
    },
    {
      "inputs": [],
      "name": "getRecentWinner",
      "outputs": [
        {
          "internalType": "address",
          "name": "",
          "type": "address"
        }
      ],
      "stateMutability": "view",
      "type": "function"
    },
    {
      "inputs": [
        {
          "internalType": "bytes",
          "name": "",
          "type": "bytes"
        }
      ],
      "name": "performUpkeep",
      "outputs": [],
      "stateMutability": "nonpayable",
      "type": "function"
    },
    {
      "inputs": [
        {
          "internalType": "uint256",
          "name": "requestId",
          "type": "uint256"
        },
        {
          "internalType": "uint256[]",
          "name": "randomWords",
          "type": "uint256[]"
        }
      ],
      "name": "rawFulfillRandomWords",
      "outputs": [],
      "stateMutability": "nonpayable",
      "type": "function"
    }
  ],
  "bytecode": "0x6101606040523480156200001257600080fd5b50604051620015c4380380620015c4833981810160405281019062000038919062000294565b818073ffffffffffffffffffffffffffffffffffffffff1660808173ffffffffffffffffffffffffffffffffffffffff1681525050508060a081815250508173ffffffffffffffffffffffffffffffffffffffff1660c08173ffffffffffffffffffffffffffffffffffffffff16815250508260e081815250508367ffffffffffffffff166101008167ffffffffffffffff16815250508463ffffffff166101208163ffffffff16815250508561014081815250506000600160006101000a81548160ff0219169083600181111562000116576200011562000330565b5b0217905550426002819055505050505050506200035f565b600080fd5b6000819050919050565b620001488162000133565b81146200015457600080fd5b50565b60008151905062000168816200013d565b92915050565b600063ffffffff82169050919050565b62000189816200016e565b81146200019557600080fd5b50565b600081519050620001a9816200017e565b92915050565b600067ffffffffffffffff82169050919050565b620001ce81620001af565b8114620001da57600080fd5b50565b600081519050620001ee81620001c3565b92915050565b6000819050919050565b6200020981620001f4565b81146200021557600080fd5b50565b6000815190506200022981620001fe565b92915050565b600073ffffffffffffffffffffffffffffffffffffffff82169050919050565b60006200025c826200022f565b9050919050565b6200026e816200024f565b81146200027a57600080fd5b50565b6000815190506200028e8162000263565b92915050565b60008060008060008060c08789031215620002b457620002b36200012e565b5b6000620002c489828a0162000157565b9650506020620002d789828a0162000198565b9550506040620002ea89828a01620001dd565b9450506060620002fd89828a0162000218565b93505060806200031089828a016200027d565b92505060a06200032389828a0162000157565b9150509295509295509295565b7f4e487b7100000000000000000000000000000000000000000000000000000000600052602160045260246000fd5b60805160a05160c05160e0516101005161012051610140516111f5620003cf6000396000818161072901526107d10152600061062a01526000610607015260006105e6015260006105aa0152600081816102b401526103b10152600081816102f1015261034501526111f56000f3fe6080604052600436106100a75760003560e01c8063473f1ddc11610064578063473f1ddc1461018957806353a2c19a146101b457806355c9e926146101df5780636e04ff0d1461020a57806391ad27b414610248578063e55ae4e814610273576100a7565b806309bc33a7146100ac578063115cbaf5146100d75780631fe543e3146101025780632cfcc5391461012b57806337899770146101355780634585e33b14610160575b600080fd5b3480156100b857600080fd5b506100c16102b0565b6040516100ce9190610a89565b60405180910390f35b3480156100e357600080fd5b506100ec6102d8565b6040516100f99190610b1b565b60405180910390f35b34801561010e57600080fd5b5061012960048036038101906101249190610ccf565b6102ef565b005b6101336103af565b005b34801561014157600080fd5b5061014a61051e565b6040516101579190610a89565b60405180910390f35b34801561016c57600080fd5b5061018760048036038101906101829190610de0565b610528565b005b34801561019557600080fd5b5061019e6106e2565b6040516101ab9190610e6a565b60405180910390f35b3480156101c057600080fd5b506101c961070c565b6040516101d69190610ea4565b60405180910390f35b3480156101eb57600080fd5b506101f4610715565b6040516102019190610a89565b60405180910390f35b34801561021657600080fd5b50610231600480360381019061022c9190610de0565b610721565b60405161023f929190610f59565b60405180910390f35b34801561025457600080fd5b5061025d6107cd565b60405161026a9190610a89565b60405180910390f35b34801561027f57600080fd5b5061029a60048036038101906102959190610f89565b6107f5565b6040516102a79190610e6a565b60405180910390f35b60007f0000000000000000000000000000000000000000000000000000000000000000905090565b6000600160009054906101000a900460ff16905090565b7f000000000000000000000000000000000000000000000000000000000000000073ffffffffffffffffffffffffffffffffffffffff163373ffffffffffffffffffffffffffffffffffffffff16146103a157337f00000000000000000000000000000000000000000000000000000000000000006040517f1cf993f4000000000000000000000000000000000000000000000000000000008152600401610398929190610fb6565b60405180910390fd5b6103ab828261083c565b5050565b7f0000000000000000000000000000000000000000000000000000000000000000341015610409576040517f246b904d00000000000000000000000000000000000000000000000000000000815260040160405180910390fd5b6000600181111561041d5761041c610aa4565b5b600160009054906101000a900460ff16600181111561043f5761043e610aa4565b5b14610476576040517f2ea3cbf200000000000000000000000000000000000000000000000000000000815260040160405180910390fd5b6000339080600181540180825580915050600190039060005260206000200160009091909190916101000a81548173ffffffffffffffffffffffffffffffffffffffff021916908373ffffffffffffffffffffffffffffffffffffffff1602179055503373ffffffffffffffffffffffffffffffffffffffff167f0805e1d667bddb8a95f0f09880cf94f403fb596ce79928d9f29b74203ba284d460405160405180910390a2565b6000600254905090565b600061054260405180602001604052806000815250610721565b5090508061057c576040517faedc535500000000000000000000000000000000000000000000000000000000815260040160405180910390fd5b60018060006101000a81548160ff021916908360018111156105a1576105a0610aa4565b5b021790555060007f000000000000000000000000000000000000000000000000000000000000000073ffffffffffffffffffffffffffffffffffffffff16635d3b1d307f00000000000000000000000000000000000000000000000000000000000000007f000000000000000000000000000000000000000000000000000000000000000060037f000000000000000000000000000000000000000000000000000000000000000060016040518663ffffffff1660e01b815260040161066b959493929190611038565b6020604051808303816000875af115801561068a573d6000803e3d6000fd5b505050506040513d601f19601f820116820180604052508101906106ae91906110a0565b9050807fcd6e45c8998311cab7e9d4385596cac867e20a0587194b954fa3a731c93ce78b60405160405180910390a2505050565b6000600360009054906101000a900473ffffffffffffffffffffffffffffffffffffffff16905090565b60006001905090565b60008080549050905090565b6000606060007f00000000000000000000000000000000000000000000000000000000000000006002544261075691906110fc565b119050600080600181111561076e5761076d610aa4565b5b600160009054906101000a900460ff1660018111156107905761078f610aa4565b5b149050600080471190506000806000805490501190508380156107b05750825b80156107b95750815b80156107c25750805b955050505050915091565b60007f0000000000000000000000000000000000000000000000000000000000000000905090565b600080828154811061080a57610809611130565b5b9060005260206000200160009054906101000a900473ffffffffffffffffffffffffffffffffffffffff169050919050565b600080805490508260008151811061085757610856611130565b5b6020026020010151610869919061118e565b905060008082815481106108805761087f611130565b5b9060005260206000200160009054906101000a900473ffffffffffffffffffffffffffffffffffffffff16905080600360006101000a81548173ffffffffffffffffffffffffffffffffffffffff021916908373ffffffffffffffffffffffffffffffffffffffff160217905550600067ffffffffffffffff81111561090957610908610b8c565b5b6040519080825280602002602001820160405280156109375781602001602082028036833780820191505090505b506000908051906020019061094d9291906109c9565b506000600160006101000a81548160ff0219169083600181111561097457610973610aa4565b5b0217905550426002819055508073ffffffffffffffffffffffffffffffffffffffff167f5b690ec4a06fe979403046eaeea5b3ce38524683c3001f662c8b5a829632f7df60405160405180910390a250505050565b828054828255906000526020600020908101928215610a42579160200282015b82811115610a415782518260006101000a81548173ffffffffffffffffffffffffffffffffffffffff021916908373ffffffffffffffffffffffffffffffffffffffff160217905550916020019190600101906109e9565b5b509050610a4f9190610a53565b5090565b5b80821115610a6c576000816000905550600101610a54565b5090565b6000819050919050565b610a8381610a70565b82525050565b6000602082019050610a9e6000830184610a7a565b92915050565b7f4e487b7100000000000000000000000000000000000000000000000000000000600052602160045260246000fd5b60028110610ae457610ae3610aa4565b5b50565b6000819050610af582610ad3565b919050565b6000610b0582610ae7565b9050919050565b610b1581610afa565b82525050565b6000602082019050610b306000830184610b0c565b92915050565b6000604051905090565b600080fd5b600080fd5b610b5381610a70565b8114610b5e57600080fd5b50565b600081359050610b7081610b4a565b92915050565b600080fd5b6000601f19601f8301169050919050565b7f4e487b7100000000000000000000000000000000000000000000000000000000600052604160045260246000fd5b610bc482610b7b565b810181811067ffffffffffffffff82111715610be357610be2610b8c565b5b80604052505050565b6000610bf6610b36565b9050610c028282610bbb565b919050565b600067ffffffffffffffff821115610c2257610c21610b8c565b5b602082029050602081019050919050565b600080fd5b6000610c4b610c4684610c07565b610bec565b90508083825260208201905060208402830185811115610c6e57610c6d610c33565b5b835b81811015610c975780610c838882610b61565b845260208401935050602081019050610c70565b5050509392505050565b600082601f830112610cb657610cb5610b76565b5b8135610cc6848260208601610c38565b91505092915050565b60008060408385031215610ce657610ce5610b40565b5b6000610cf485828601610b61565b925050602083013567ffffffffffffffff811115610d1557610d14610b45565b5b610d2185828601610ca1565b9150509250929050565b600080fd5b600067ffffffffffffffff821115610d4b57610d4a610b8c565b5b610d5482610b7b565b9050602081019050919050565b82818337600083830152505050565b6000610d83610d7e84610d30565b610bec565b905082815260208101848484011115610d9f57610d9e610d2b565b5b610daa848285610d61565b509392505050565b600082601f830112610dc757610dc6610b76565b5b8135610dd7848260208601610d70565b91505092915050565b600060208284031215610df657610df5610b40565b5b600082013567ffffffffffffffff811115610e1457610e13610b45565b5b610e2084828501610db2565b91505092915050565b600073ffffffffffffffffffffffffffffffffffffffff82169050919050565b6000610e5482610e29565b9050919050565b610e6481610e49565b82525050565b6000602082019050610e7f6000830184610e5b565b92915050565b600063ffffffff82169050919050565b610e9e81610e85565b82525050565b6000602082019050610eb96000830184610e95565b92915050565b60008115159050919050565b610ed481610ebf565b82525050565b600081519050919050565b600082825260208201905092915050565b60005b83811015610f14578082015181840152602081019050610ef9565b60008484015250505050565b6000610f2b82610eda565b610f358185610ee5565b9350610f45818560208601610ef6565b610f4e81610b7b565b840191505092915050565b6000604082019050610f6e6000830185610ecb565b8181036020830152610f808184610f20565b90509392505050565b600060208284031215610f9f57610f9e610b40565b5b6000610fad84828501610b61565b91505092915050565b6000604082019050610fcb6000830185610e5b565b610fd86020830184610e5b565b9392505050565b6000819050919050565b610ff281610fdf565b82525050565b600067ffffffffffffffff82169050919050565b61101581610ff8565b82525050565b600061ffff82169050919050565b6110328161101b565b82525050565b600060a08201905061104d6000830188610fe9565b61105a602083018761100c565b6110676040830186611029565b6110746060830185610e95565b6110816080830184610e95565b9695505050505050565b60008151905061109a81610b4a565b92915050565b6000602082840312156110b6576110b5610b40565b5b60006110c48482850161108b565b91505092915050565b7f4e487b7100000000000000000000000000000000000000000000000000000000600052601160045260246000fd5b600061110782610a70565b915061111283610a70565b925082820390508181111561112a576111296110cd565b5b92915050565b7f4e487b7100000000000000000000000000000000000000000000000000000000600052603260045260246000fd5b7f4e487b7100000000000000000000000000000000000000000000000000000000600052601260045260246000fd5b600061119982610a70565b91506111a483610a70565b9250826111b4576111b361115f565b5b82820690509291505056fea2646970667358221220e054b91eae294cddc337212ac12b4a7a9732f05ad12176bb81920c16ed9dee6064736f6c63430008110033",
  "linkReferences": {},
  "deployedLinkReferences": {}
}